{
  "_format": "hh-sol-artifact-1",
  "contractName": "ERC20Token",
  "sourceName": "contracts/MyContract.sol",
  "abi": [
    {
      "inputs": [
        {
          "internalType": "address",
          "name": "",
          "type": "address"
        }
      ],
      "name": "balances",
      "outputs": [
        {
          "internalType": "uint256",
          "name": "",
          "type": "uint256"
        }
      ],
      "stateMutability": "view",
      "type": "function"
    },
    {
      "inputs": [],
      "name": "mint",
      "outputs": [],
      "stateMutability": "nonpayable",
      "type": "function"
    },
    {
      "inputs": [],
      "name": "name",
      "outputs": [
        {
          "internalType": "string",
          "name": "",
          "type": "string"
        }
      ],
      "stateMutability": "view",
      "type": "function"
    }
  ],
  "bytecode": "0x608060405234801561001057600080fd5b50610420806100206000396000f3fe608060405234801561001057600080fd5b50600436106100415760003560e01c806306fdde03146100465780631249c58b1461006457806327e235e31461006e575b600080fd5b61004e61009e565b60405161005b9190610221565b60405180910390f35b61006c61012c565b005b610088600480360381019061008391906101b0565b610183565b6040516100959190610243565b60405180910390f35b600080546100ab906102e9565b80601f01602080910402602001604051908101604052809291908181526020018280546100d7906102e9565b80156101245780601f106100f957610100808354040283529160200191610124565b820191906000526020600020905b81548152906001019060200180831161010757829003601f168201915b505050505081565b600160003273ffffffffffffffffffffffffffffffffffffffff1673ffffffffffffffffffffffffffffffffffffffff168152602001908152602001600020600081548092919061017c9061031b565b9190505550565b60016020528060005260406000206000915090505481565b6000813590506101aa816103d3565b92915050565b6000602082840312156101c257600080fd5b60006101d08482850161019b565b91505092915050565b60006101e48261025e565b6101ee8185610269565b93506101fe8185602086016102b6565b610207816103c2565b840191505092915050565b61021b816102ac565b82525050565b6000602082019050818103600083015261023b81846101d9565b905092915050565b60006020820190506102586000830184610212565b92915050565b600081519050919050565b600082825260208201905092915050565b60006102858261028c565b9050919050565b600073ffffffffffffffffffffffffffffffffffffffff82169050919050565b6000819050919050565b60005b838110156102d45780820151818401526020810190506102b9565b838111156102e3576000848401525b50505050565b6000600282049050600182168061030157607f821691505b6020821081141561031557610314610393565b5b50919050565b6000610326826102ac565b91507fffffffffffffffffffffffffffffffffffffffffffffffffffffffffffffffff82141561035957610358610364565b5b600182019050919050565b7f4e487b7100000000000000000000000000000000000000000000000000000000600052601160045260246000fd5b7f4e487b7100000000000000000000000000000000000000000000000000000000600052602260045260246000fd5b6000601f19601f8301169050919050565b6103dc8161027a565b81146103e757600080fd5b5056fea26469706673582212203f1bf87400261c524ebe3208adbc928a4e6d2cc7f378b7e47fd43a808f62ff4364736f6c63430008000033",
  "linkReferences": {},
  "deployedLinkReferences": {}
}