{
  "_format": "hh-sol-artifact-1",
  "contractName": "ERC21Token",
  "sourceName": "contracts/MyContract.sol",
  "abi": [
    {
      "inputs": [
        {
          "internalType": "string",
          "name": "_name",
          "type": "string"
        },
        {
          "internalType": "address payable",
          "name": "_wallet",
          "type": "address"
        }
      ],
      "stateMutability": "nonpayable",
      "type": "constructor"
    },
    {
      "stateMutability": "payable",
      "type": "fallback"
    },
    {
      "inputs": [
        {
          "internalType": "address",
          "name": "",
          "type": "address"
        }
      ],
      "name": "balances",
      "outputs": [
        {
          "internalType": "uint256",
          "name": "",
          "type": "uint256"
        }
      ],
      "stateMutability": "view",
      "type": "function"
    },
    {
      "inputs": [],
      "name": "mint",
      "outputs": [],
      "stateMutability": "payable",
      "type": "function"
    },
    {
      "inputs": [],
      "name": "name",
      "outputs": [
        {
          "internalType": "string",
          "name": "",
          "type": "string"
        }
      ],
      "stateMutability": "view",
      "type": "function"
    },
    {
      "stateMutability": "payable",
      "type": "receive"
    }
  ],
  "bytecode": "0x60806040523480156200001157600080fd5b50604051620008ca380380620008ca8339818101604052810190620000379190620001d2565b81600090805190602001906200004f92919062000099565b5080600160006101000a81548173ffffffffffffffffffffffffffffffffffffffff021916908373ffffffffffffffffffffffffffffffffffffffff1602179055505050620003ab565b828054620000a790620002fd565b90600052602060002090601f016020900481019282620000cb576000855562000117565b82601f10620000e657805160ff191683800117855562000117565b8280016001018555821562000117579182015b8281111562000116578251825591602001919060010190620000f9565b5b5090506200012691906200012a565b5090565b5b80821115620001455760008160009055506001016200012b565b5090565b6000620001606200015a8462000260565b6200022c565b9050828152602081018484840111156200017957600080fd5b62000186848285620002c7565b509392505050565b6000815190506200019f8162000391565b92915050565b600082601f830112620001b757600080fd5b8151620001c984826020860162000149565b91505092915050565b60008060408385031215620001e657600080fd5b600083015167ffffffffffffffff8111156200020157600080fd5b6200020f85828601620001a5565b925050602062000222858286016200018e565b9150509250929050565b6000604051905081810181811067ffffffffffffffff8211171562000256576200025562000362565b5b8060405250919050565b600067ffffffffffffffff8211156200027e576200027d62000362565b5b601f19601f8301169050602081019050919050565b6000620002a082620002a7565b9050919050565b600073ffffffffffffffffffffffffffffffffffffffff82169050919050565b60005b83811015620002e7578082015181840152602081019050620002ca565b83811115620002f7576000848401525b50505050565b600060028204905060018216806200031657607f821691505b602082108114156200032d576200032c62000333565b5b50919050565b7f4e487b7100000000000000000000000000000000000000000000000000000000600052602260045260246000fd5b7f4e487b7100000000000000000000000000000000000000000000000000000000600052604160045260246000fd5b6200039c8162000293565b8114620003a857600080fd5b50565b61050f80620003bb6000396000f3fe6080604052600436106100385760003560e01c806306fdde03146100b25780631249c58b146100dd57806327e235e3146100e7576100a8565b366100a857600160009054906101000a900473ffffffffffffffffffffffffffffffffffffffff1673ffffffffffffffffffffffffffffffffffffffff166108fc349081150290604051600060405180830381858888f193505050501580156100a5573d6000803e3d6000fd5b50005b6100b0610124565b005b3480156100be57600080fd5b506100c76101e4565b6040516100d49190610310565b60405180910390f35b6100e5610124565b005b3480156100f357600080fd5b5061010e6004803603810190610109919061029f565b610272565b60405161011b9190610332565b60405180910390f35b600260003273ffffffffffffffffffffffffffffffffffffffff1673ffffffffffffffffffffffffffffffffffffffff16815260200190815260200160002060008154809291906101749061040a565b9190505550600160009054906101000a900473ffffffffffffffffffffffffffffffffffffffff1673ffffffffffffffffffffffffffffffffffffffff166108fc349081150290604051600060405180830381858888f193505050501580156101e1573d6000803e3d6000fd5b50565b600080546101f1906103d8565b80601f016020809104026020016040519081016040528092919081815260200182805461021d906103d8565b801561026a5780601f1061023f5761010080835404028352916020019161026a565b820191906000526020600020905b81548152906001019060200180831161024d57829003601f168201915b505050505081565b60026020528060005260406000206000915090505481565b600081359050610299816104c2565b92915050565b6000602082840312156102b157600080fd5b60006102bf8482850161028a565b91505092915050565b60006102d38261034d565b6102dd8185610358565b93506102ed8185602086016103a5565b6102f6816104b1565b840191505092915050565b61030a8161039b565b82525050565b6000602082019050818103600083015261032a81846102c8565b905092915050565b60006020820190506103476000830184610301565b92915050565b600081519050919050565b600082825260208201905092915050565b60006103748261037b565b9050919050565b600073ffffffffffffffffffffffffffffffffffffffff82169050919050565b6000819050919050565b60005b838110156103c35780820151818401526020810190506103a8565b838111156103d2576000848401525b50505050565b600060028204905060018216806103f057607f821691505b6020821081141561040457610403610482565b5b50919050565b60006104158261039b565b91507fffffffffffffffffffffffffffffffffffffffffffffffffffffffffffffffff82141561044857610447610453565b5b600182019050919050565b7f4e487b7100000000000000000000000000000000000000000000000000000000600052601160045260246000fd5b7f4e487b7100000000000000000000000000000000000000000000000000000000600052602260045260246000fd5b6000601f19601f8301169050919050565b6104cb81610369565b81146104d657600080fd5b5056fea2646970667358221220846b1509a7789efe919ad0b64eb27eade01febc26f047f438186a52032ff682f64736f6c63430008000033",
  "linkReferences": {},
  "deployedLinkReferences": {}
}