{
  "_format": "hh-sol-artifact-1",
  "contractName": "MyContract",
  "sourceName": "contracts/MyContract.sol",
  "abi": [
    {
      "inputs": [
        {
          "internalType": "address payable",
          "name": "_wallet",
          "type": "address"
        }
      ],
      "stateMutability": "nonpayable",
      "type": "constructor"
    },
    {
      "anonymous": false,
      "inputs": [
        {
          "indexed": false,
          "internalType": "address",
          "name": "_byer",
          "type": "address"
        },
        {
          "indexed": false,
          "internalType": "uint256",
          "name": "_amount",
          "type": "uint256"
        }
      ],
      "name": "Purchase",
      "type": "event"
    },
    {
      "stateMutability": "payable",
      "type": "fallback"
    },
    {
      "inputs": [
        {
          "internalType": "address",
          "name": "",
          "type": "address"
        }
      ],
      "name": "balances",
      "outputs": [
        {
          "internalType": "uint256",
          "name": "",
          "type": "uint256"
        }
      ],
      "stateMutability": "view",
      "type": "function"
    },
    {
      "inputs": [],
      "name": "buyToken",
      "outputs": [],
      "stateMutability": "payable",
      "type": "function"
    },
    {
      "stateMutability": "payable",
      "type": "receive"
    }
  ],
  "bytecode": "0x608060405234801561001057600080fd5b506040516104df3803806104df8339818101604052810190610032919061008e565b80600160006101000a81548173ffffffffffffffffffffffffffffffffffffffff021916908373ffffffffffffffffffffffffffffffffffffffff16021790555050610100565b600081519050610088816100e9565b92915050565b6000602082840312156100a057600080fd5b60006100ae84828501610079565b91505092915050565b60006100c2826100c9565b9050919050565b600073ffffffffffffffffffffffffffffffffffffffff82169050919050565b6100f2816100b7565b81146100fd57600080fd5b50565b6103d08061010f6000396000f3fe60806040526004361061002d5760003560e01c806327e235e3146100a7578063a4821719146100e45761009d565b3661009d57600160009054906101000a900473ffffffffffffffffffffffffffffffffffffffff1673ffffffffffffffffffffffffffffffffffffffff166108fc349081150290604051600060405180830381858888f1935050505015801561009a573d6000803e3d6000fd5b50005b6100a56100ee565b005b3480156100b357600080fd5b506100ce60048036038101906100c99190610216565b6101e9565b6040516100db9190610295565b60405180910390f35b6100ec6100ee565b005b60016000803373ffffffffffffffffffffffffffffffffffffffff1673ffffffffffffffffffffffffffffffffffffffff168152602001908152602001600020600082825461013d91906102b0565b92505081905550600160009054906101000a900473ffffffffffffffffffffffffffffffffffffffff1673ffffffffffffffffffffffffffffffffffffffff166108fc349081150290604051600060405180830381858888f193505050501580156101ac573d6000803e3d6000fd5b507f2499a5330ab0979cc612135e7883ebc3cd5c9f7a8508f042540c34723348f6323360016040516101df92919061026c565b60405180910390a1565b60006020528060005260406000206000915090505481565b60008135905061021081610383565b92915050565b60006020828403121561022857600080fd5b600061023684828501610201565b91505092915050565b61024881610306565b82525050565b61025781610342565b82525050565b61026681610338565b82525050565b6000604082019050610281600083018561023f565b61028e602083018461024e565b9392505050565b60006020820190506102aa600083018461025d565b92915050565b60006102bb82610338565b91506102c683610338565b9250827fffffffffffffffffffffffffffffffffffffffffffffffffffffffffffffffff038211156102fb576102fa610354565b5b828201905092915050565b600061031182610318565b9050919050565b600073ffffffffffffffffffffffffffffffffffffffff82169050919050565b6000819050919050565b600061034d82610338565b9050919050565b7f4e487b7100000000000000000000000000000000000000000000000000000000600052601160045260246000fd5b61038c81610306565b811461039757600080fd5b5056fea26469706673582212201fe41dc8cedbe472856858d73cca36d85079d10890db3984c891b6eab059320764736f6c63430008000033",
  "linkReferences": {},
  "deployedLinkReferences": {}
}