{
  "_format": "hh-sol-artifact-1",
  "contractName": "MyContractERC20Helper",
  "sourceName": "contracts/MyContract.sol",
  "abi": [
    {
      "inputs": [
        {
          "internalType": "address payable",
          "name": "_wallet",
          "type": "address"
        },
        {
          "internalType": "address",
          "name": "_token",
          "type": "address"
        }
      ],
      "stateMutability": "nonpayable",
      "type": "constructor"
    },
    {
      "stateMutability": "payable",
      "type": "fallback"
    },
    {
      "inputs": [],
      "name": "buyToken",
      "outputs": [],
      "stateMutability": "payable",
      "type": "function"
    },
    {
      "inputs": [],
      "name": "token",
      "outputs": [
        {
          "internalType": "address",
          "name": "",
          "type": "address"
        }
      ],
      "stateMutability": "view",
      "type": "function"
    }
  ],
  "bytecode": "0x608060405234801561001057600080fd5b506040516103b73803806103b7833981810160405281019061003291906100e4565b816000806101000a81548173ffffffffffffffffffffffffffffffffffffffff021916908373ffffffffffffffffffffffffffffffffffffffff16021790555080600160006101000a81548173ffffffffffffffffffffffffffffffffffffffff021916908373ffffffffffffffffffffffffffffffffffffffff1602179055505050610192565b6000815190506100c981610164565b92915050565b6000815190506100de8161017b565b92915050565b600080604083850312156100f757600080fd5b6000610105858286016100cf565b9250506020610116858286016100ba565b9150509250929050565b600061012b82610144565b9050919050565b600061013d82610144565b9050919050565b600073ffffffffffffffffffffffffffffffffffffffff82169050919050565b61016d81610120565b811461017857600080fd5b50565b61018481610132565b811461018f57600080fd5b50565b610216806101a16000396000f3fe60806040526004361061002d5760003560e01c8063a482171914610038578063fc0c546a146100425761002e565b5b61003661006d565b005b61004061006d565b005b34801561004e57600080fd5b5061005761015e565b6040516100649190610193565b60405180910390f35b6000600160009054906101000a900473ffffffffffffffffffffffffffffffffffffffff1690508073ffffffffffffffffffffffffffffffffffffffff16631249c58b6040518163ffffffff1660e01b8152600401600060405180830381600087803b1580156100dc57600080fd5b505af11580156100f0573d6000803e3d6000fd5b5050505060008054906101000a900473ffffffffffffffffffffffffffffffffffffffff1673ffffffffffffffffffffffffffffffffffffffff166108fc349081150290604051600060405180830381858888f1935050505015801561015a573d6000803e3d6000fd5b5050565b600160009054906101000a900473ffffffffffffffffffffffffffffffffffffffff1681565b61018d816101ae565b82525050565b60006020820190506101a86000830184610184565b92915050565b60006101b9826101c0565b9050919050565b600073ffffffffffffffffffffffffffffffffffffffff8216905091905056fea2646970667358221220aac2c3a1c6d9dbb95ef9a9a46392ccdf20081f4e55c94ec283a9779c3d05312464736f6c63430008000033",
  "linkReferences": {},
  "deployedLinkReferences": {}
}