{
  "_format": "hh-sol-artifact-1",
  "contractName": "MyContract",
  "sourceName": "contracts/MyContract.sol",
  "abi": [
    {
      "inputs": [
        {
          "internalType": "address payable",
          "name": "_wallet",
          "type": "address"
        }
      ],
      "stateMutability": "nonpayable",
      "type": "constructor"
    },
    {
      "anonymous": false,
      "inputs": [
        {
          "indexed": false,
          "internalType": "address",
          "name": "_byer",
          "type": "address"
        },
        {
          "indexed": false,
          "internalType": "uint256",
          "name": "_amount",
          "type": "uint256"
        }
      ],
      "name": "Purchase",
      "type": "event"
    },
    {
      "stateMutability": "payable",
      "type": "fallback"
    },
    {
      "inputs": [
        {
          "internalType": "address",
          "name": "",
          "type": "address"
        }
      ],
      "name": "balances",
      "outputs": [
        {
          "internalType": "uint256",
          "name": "",
          "type": "uint256"
        }
      ],
      "stateMutability": "view",
      "type": "function"
    },
    {
      "inputs": [],
      "name": "buyToken",
      "outputs": [],
      "stateMutability": "payable",
      "type": "function"
    }
  ],
  "bytecode": "0x608060405234801561001057600080fd5b506040516104703803806104708339818101604052810190610032919061008e565b80600160006101000a81548173ffffffffffffffffffffffffffffffffffffffff021916908373ffffffffffffffffffffffffffffffffffffffff16021790555050610100565b600081519050610088816100e9565b92915050565b6000602082840312156100a057600080fd5b60006100ae84828501610079565b91505092915050565b60006100c2826100c9565b9050919050565b600073ffffffffffffffffffffffffffffffffffffffff82169050919050565b6100f2816100b7565b81146100fd57600080fd5b50565b6103618061010f6000396000f3fe60806040526004361061002d5760003560e01c806327e235e314610038578063a4821719146100755761002e565b5b61003661007f565b005b34801561004457600080fd5b5061005f600480360381019061005a91906101a7565b61017a565b60405161006c9190610226565b60405180910390f35b61007d61007f565b005b60016000803373ffffffffffffffffffffffffffffffffffffffff1673ffffffffffffffffffffffffffffffffffffffff16815260200190815260200160002060008282546100ce9190610241565b92505081905550600160009054906101000a900473ffffffffffffffffffffffffffffffffffffffff1673ffffffffffffffffffffffffffffffffffffffff166108fc349081150290604051600060405180830381858888f1935050505015801561013d573d6000803e3d6000fd5b507f2499a5330ab0979cc612135e7883ebc3cd5c9f7a8508f042540c34723348f6323360016040516101709291906101fd565b60405180910390a1565b60006020528060005260406000206000915090505481565b6000813590506101a181610314565b92915050565b6000602082840312156101b957600080fd5b60006101c784828501610192565b91505092915050565b6101d981610297565b82525050565b6101e8816102d3565b82525050565b6101f7816102c9565b82525050565b600060408201905061021260008301856101d0565b61021f60208301846101df565b9392505050565b600060208201905061023b60008301846101ee565b92915050565b600061024c826102c9565b9150610257836102c9565b9250827fffffffffffffffffffffffffffffffffffffffffffffffffffffffffffffffff0382111561028c5761028b6102e5565b5b828201905092915050565b60006102a2826102a9565b9050919050565b600073ffffffffffffffffffffffffffffffffffffffff82169050919050565b6000819050919050565b60006102de826102c9565b9050919050565b7f4e487b7100000000000000000000000000000000000000000000000000000000600052601160045260246000fd5b61031d81610297565b811461032857600080fd5b5056fea2646970667358221220d72d3e3bdcc626c28a9fbf706fdf2a99d8d34e3c2710030c432d1a2073196d7664736f6c63430008000033",
  "linkReferences": {},
  "deployedLinkReferences": {}
}