{
  "_format": "hh-sol-artifact-1",
  "contractName": "MyToken",
  "sourceName": "contracts/MyContract.sol",
  "abi": [
    {
      "inputs": [
        {
          "internalType": "string",
          "name": "_name",
          "type": "string"
        },
        {
          "internalType": "string",
          "name": "_symbol",
          "type": "string"
        },
        {
          "internalType": "address payable",
          "name": "_wallet",
          "type": "address"
        }
      ],
      "stateMutability": "nonpayable",
      "type": "constructor"
    },
    {
      "stateMutability": "payable",
      "type": "fallback"
    },
    {
      "inputs": [
        {
          "internalType": "address",
          "name": "",
          "type": "address"
        }
      ],
      "name": "balances",
      "outputs": [
        {
          "internalType": "uint256",
          "name": "",
          "type": "uint256"
        }
      ],
      "stateMutability": "view",
      "type": "function"
    },
    {
      "inputs": [],
      "name": "mint",
      "outputs": [],
      "stateMutability": "payable",
      "type": "function"
    },
    {
      "inputs": [],
      "name": "name",
      "outputs": [
        {
          "internalType": "string",
          "name": "",
          "type": "string"
        }
      ],
      "stateMutability": "view",
      "type": "function"
    },
    {
      "inputs": [
        {
          "internalType": "uint256",
          "name": "",
          "type": "uint256"
        }
      ],
      "name": "owners",
      "outputs": [
        {
          "internalType": "address",
          "name": "",
          "type": "address"
        }
      ],
      "stateMutability": "view",
      "type": "function"
    },
    {
      "inputs": [],
      "name": "symbol",
      "outputs": [
        {
          "internalType": "string",
          "name": "",
          "type": "string"
        }
      ],
      "stateMutability": "view",
      "type": "function"
    },
    {
      "stateMutability": "payable",
      "type": "receive"
    }
  ],
  "bytecode": "0x60806040523480156200001157600080fd5b5060405162000b6538038062000b658339818101604052810190620000379190620001f0565b8281816000908051906020019062000051929190620000b7565b5080600160006101000a81548173ffffffffffffffffffffffffffffffffffffffff021916908373ffffffffffffffffffffffffffffffffffffffff16021790555050508160039080519060200190620000ad929190620000b7565b50505050620003f7565b828054620000c59062000349565b90600052602060002090601f016020900481019282620000e9576000855562000135565b82601f106200010457805160ff191683800117855562000135565b8280016001018555821562000135579182015b828111156200013457825182559160200191906001019062000117565b5b50905062000144919062000148565b5090565b5b808211156200016357600081600090555060010162000149565b5090565b60006200017e6200017884620002ac565b62000278565b9050828152602081018484840111156200019757600080fd5b620001a484828562000313565b509392505050565b600081519050620001bd81620003dd565b92915050565b600082601f830112620001d557600080fd5b8151620001e784826020860162000167565b91505092915050565b6000806000606084860312156200020657600080fd5b600084015167ffffffffffffffff8111156200022157600080fd5b6200022f86828701620001c3565b935050602084015167ffffffffffffffff8111156200024d57600080fd5b6200025b86828701620001c3565b92505060406200026e86828701620001ac565b9150509250925092565b6000604051905081810181811067ffffffffffffffff82111715620002a257620002a1620003ae565b5b8060405250919050565b600067ffffffffffffffff821115620002ca57620002c9620003ae565b5b601f19601f8301169050602081019050919050565b6000620002ec82620002f3565b9050919050565b600073ffffffffffffffffffffffffffffffffffffffff82169050919050565b60005b838110156200033357808201518184015260208101905062000316565b8381111562000343576000848401525b50505050565b600060028204905060018216806200036257607f821691505b602082108114156200037957620003786200037f565b5b50919050565b7f4e487b7100000000000000000000000000000000000000000000000000000000600052602260045260246000fd5b7f4e487b7100000000000000000000000000000000000000000000000000000000600052604160045260246000fd5b620003e881620002df565b8114620003f457600080fd5b50565b61075e80620004076000396000f3fe60806040526004361061004e5760003560e01c8063025e7c27146100c857806306fdde03146101055780631249c58b1461013057806327e235e31461013a57806395d89b4114610177576100be565b366100be57600160009054906101000a900473ffffffffffffffffffffffffffffffffffffffff1673ffffffffffffffffffffffffffffffffffffffff166108fc349081150290604051600060405180830381858888f193505050501580156100bb573d6000803e3d6000fd5b50005b6100c66101a2565b005b3480156100d457600080fd5b506100ef60048036038101906100ea91906104ad565b610227565b6040516100fc919061052d565b60405180910390f35b34801561011157600080fd5b5061011a610266565b6040516101279190610548565b60405180910390f35b6101386101a2565b005b34801561014657600080fd5b50610161600480360381019061015c9190610484565b6102f4565b60405161016e919061056a565b60405180910390f35b34801561018357600080fd5b5061018c61030c565b6040516101999190610548565b60405180910390f35b6101aa61039a565b600560008154809291906101bd90610642565b91905055506004339080600181540180825580915050600190039060005260206000200160009091909190916101000a81548173ffffffffffffffffffffffffffffffffffffffff021916908373ffffffffffffffffffffffffffffffffffffffff160217905550565b6004818154811061023757600080fd5b906000526020600020016000915054906101000a900473ffffffffffffffffffffffffffffffffffffffff1681565b6000805461027390610610565b80601f016020809104026020016040519081016040528092919081815260200182805461029f90610610565b80156102ec5780601f106102c1576101008083540402835291602001916102ec565b820191906000526020600020905b8154815290600101906020018083116102cf57829003601f168201915b505050505081565b60026020528060005260406000206000915090505481565b6003805461031990610610565b80601f016020809104026020016040519081016040528092919081815260200182805461034590610610565b80156103925780601f1061036757610100808354040283529160200191610392565b820191906000526020600020905b81548152906001019060200180831161037557829003601f168201915b505050505081565b600260003273ffffffffffffffffffffffffffffffffffffffff1673ffffffffffffffffffffffffffffffffffffffff16815260200190815260200160002060008154809291906103ea90610642565b9190505550600160009054906101000a900473ffffffffffffffffffffffffffffffffffffffff1673ffffffffffffffffffffffffffffffffffffffff166108fc349081150290604051600060405180830381858888f19350505050158015610457573d6000803e3d6000fd5b50565b600081359050610469816106fa565b92915050565b60008135905061047e81610711565b92915050565b60006020828403121561049657600080fd5b60006104a48482850161045a565b91505092915050565b6000602082840312156104bf57600080fd5b60006104cd8482850161046f565b91505092915050565b6104df816105a1565b82525050565b60006104f082610585565b6104fa8185610590565b935061050a8185602086016105dd565b610513816106e9565b840191505092915050565b610527816105d3565b82525050565b600060208201905061054260008301846104d6565b92915050565b6000602082019050818103600083015261056281846104e5565b905092915050565b600060208201905061057f600083018461051e565b92915050565b600081519050919050565b600082825260208201905092915050565b60006105ac826105b3565b9050919050565b600073ffffffffffffffffffffffffffffffffffffffff82169050919050565b6000819050919050565b60005b838110156105fb5780820151818401526020810190506105e0565b8381111561060a576000848401525b50505050565b6000600282049050600182168061062857607f821691505b6020821081141561063c5761063b6106ba565b5b50919050565b600061064d826105d3565b91507fffffffffffffffffffffffffffffffffffffffffffffffffffffffffffffffff8214156106805761067f61068b565b5b600182019050919050565b7f4e487b7100000000000000000000000000000000000000000000000000000000600052601160045260246000fd5b7f4e487b7100000000000000000000000000000000000000000000000000000000600052602260045260246000fd5b6000601f19601f8301169050919050565b610703816105a1565b811461070e57600080fd5b50565b61071a816105d3565b811461072557600080fd5b5056fea26469706673582212202558a25e51520157e1eed3aa01a76c8b6bcc6c2907cfa64775f46ce6d33a06a164736f6c63430008000033",
  "linkReferences": {},
  "deployedLinkReferences": {}
}