{
  "_format": "hh-sol-artifact-1",
  "contractName": "MyToken",
  "sourceName": "contracts/MyContract.sol",
  "abi": [
    {
      "inputs": [
        {
          "internalType": "string",
          "name": "_name",
          "type": "string"
        },
        {
          "internalType": "string",
          "name": "_symbol",
          "type": "string"
        },
        {
          "internalType": "address payable",
          "name": "_wallet",
          "type": "address"
        }
      ],
      "stateMutability": "nonpayable",
      "type": "constructor"
    },
    {
      "stateMutability": "payable",
      "type": "fallback"
    },
    {
      "inputs": [
        {
          "internalType": "address",
          "name": "",
          "type": "address"
        }
      ],
      "name": "balances",
      "outputs": [
        {
          "internalType": "uint256",
          "name": "",
          "type": "uint256"
        }
      ],
      "stateMutability": "view",
      "type": "function"
    },
    {
      "inputs": [],
      "name": "mint",
      "outputs": [],
      "stateMutability": "payable",
      "type": "function"
    },
    {
      "inputs": [],
      "name": "name",
      "outputs": [
        {
          "internalType": "string",
          "name": "",
          "type": "string"
        }
      ],
      "stateMutability": "view",
      "type": "function"
    },
    {
      "inputs": [
        {
          "internalType": "uint256",
          "name": "",
          "type": "uint256"
        }
      ],
      "name": "owners",
      "outputs": [
        {
          "internalType": "address",
          "name": "",
          "type": "address"
        }
      ],
      "stateMutability": "view",
      "type": "function"
    },
    {
      "inputs": [],
      "name": "symbol",
      "outputs": [
        {
          "internalType": "string",
          "name": "",
          "type": "string"
        }
      ],
      "stateMutability": "view",
      "type": "function"
    }
  ],
  "bytecode": "0x60806040523480156200001157600080fd5b5060405162000af638038062000af68339818101604052810190620000379190620001f0565b8281816000908051906020019062000051929190620000b7565b5080600160006101000a81548173ffffffffffffffffffffffffffffffffffffffff021916908373ffffffffffffffffffffffffffffffffffffffff16021790555050508160039080519060200190620000ad929190620000b7565b50505050620003f7565b828054620000c59062000349565b90600052602060002090601f016020900481019282620000e9576000855562000135565b82601f106200010457805160ff191683800117855562000135565b8280016001018555821562000135579182015b828111156200013457825182559160200191906001019062000117565b5b50905062000144919062000148565b5090565b5b808211156200016357600081600090555060010162000149565b5090565b60006200017e6200017884620002ac565b62000278565b9050828152602081018484840111156200019757600080fd5b620001a484828562000313565b509392505050565b600081519050620001bd81620003dd565b92915050565b600082601f830112620001d557600080fd5b8151620001e784826020860162000167565b91505092915050565b6000806000606084860312156200020657600080fd5b600084015167ffffffffffffffff8111156200022157600080fd5b6200022f86828701620001c3565b935050602084015167ffffffffffffffff8111156200024d57600080fd5b6200025b86828701620001c3565b92505060406200026e86828701620001ac565b9150509250925092565b6000604051905081810181811067ffffffffffffffff82111715620002a257620002a1620003ae565b5b8060405250919050565b600067ffffffffffffffff821115620002ca57620002c9620003ae565b5b601f19601f8301169050602081019050919050565b6000620002ec82620002f3565b9050919050565b600073ffffffffffffffffffffffffffffffffffffffff82169050919050565b60005b838110156200033357808201518184015260208101905062000316565b8381111562000343576000848401525b50505050565b600060028204905060018216806200036257607f821691505b602082108114156200037957620003786200037f565b5b50919050565b7f4e487b7100000000000000000000000000000000000000000000000000000000600052602260045260246000fd5b7f4e487b7100000000000000000000000000000000000000000000000000000000600052604160045260246000fd5b620003e881620002df565b8114620003f457600080fd5b50565b6106ef80620004076000396000f3fe60806040526004361061004e5760003560e01c8063025e7c271461005957806306fdde03146100965780631249c58b146100c157806327e235e3146100cb57806395d89b41146101085761004f565b5b610057610133565b005b34801561006557600080fd5b50610080600480360381019061007b919061043e565b6101b8565b60405161008d91906104be565b60405180910390f35b3480156100a257600080fd5b506100ab6101f7565b6040516100b891906104d9565b60405180910390f35b6100c9610133565b005b3480156100d757600080fd5b506100f260048036038101906100ed9190610415565b610285565b6040516100ff91906104fb565b60405180910390f35b34801561011457600080fd5b5061011d61029d565b60405161012a91906104d9565b60405180910390f35b61013b61032b565b6005600081548092919061014e906105d3565b91905055506004339080600181540180825580915050600190039060005260206000200160009091909190916101000a81548173ffffffffffffffffffffffffffffffffffffffff021916908373ffffffffffffffffffffffffffffffffffffffff160217905550565b600481815481106101c857600080fd5b906000526020600020016000915054906101000a900473ffffffffffffffffffffffffffffffffffffffff1681565b60008054610204906105a1565b80601f0160208091040260200160405190810160405280929190818152602001828054610230906105a1565b801561027d5780601f106102525761010080835404028352916020019161027d565b820191906000526020600020905b81548152906001019060200180831161026057829003601f168201915b505050505081565b60026020528060005260406000206000915090505481565b600380546102aa906105a1565b80601f01602080910402602001604051908101604052809291908181526020018280546102d6906105a1565b80156103235780601f106102f857610100808354040283529160200191610323565b820191906000526020600020905b81548152906001019060200180831161030657829003601f168201915b505050505081565b600260003273ffffffffffffffffffffffffffffffffffffffff1673ffffffffffffffffffffffffffffffffffffffff168152602001908152602001600020600081548092919061037b906105d3565b9190505550600160009054906101000a900473ffffffffffffffffffffffffffffffffffffffff1673ffffffffffffffffffffffffffffffffffffffff166108fc349081150290604051600060405180830381858888f193505050501580156103e8573d6000803e3d6000fd5b50565b6000813590506103fa8161068b565b92915050565b60008135905061040f816106a2565b92915050565b60006020828403121561042757600080fd5b6000610435848285016103eb565b91505092915050565b60006020828403121561045057600080fd5b600061045e84828501610400565b91505092915050565b61047081610532565b82525050565b600061048182610516565b61048b8185610521565b935061049b81856020860161056e565b6104a48161067a565b840191505092915050565b6104b881610564565b82525050565b60006020820190506104d36000830184610467565b92915050565b600060208201905081810360008301526104f38184610476565b905092915050565b600060208201905061051060008301846104af565b92915050565b600081519050919050565b600082825260208201905092915050565b600061053d82610544565b9050919050565b600073ffffffffffffffffffffffffffffffffffffffff82169050919050565b6000819050919050565b60005b8381101561058c578082015181840152602081019050610571565b8381111561059b576000848401525b50505050565b600060028204905060018216806105b957607f821691505b602082108114156105cd576105cc61064b565b5b50919050565b60006105de82610564565b91507fffffffffffffffffffffffffffffffffffffffffffffffffffffffffffffffff8214156106115761061061061c565b5b600182019050919050565b7f4e487b7100000000000000000000000000000000000000000000000000000000600052601160045260246000fd5b7f4e487b7100000000000000000000000000000000000000000000000000000000600052602260045260246000fd5b6000601f19601f8301169050919050565b61069481610532565b811461069f57600080fd5b50565b6106ab81610564565b81146106b657600080fd5b5056fea26469706673582212202cc4d9b5bf3a49b33834af3c3d6a2da3017028f1faed749b1f38aa045d92929c64736f6c63430008000033",
  "linkReferences": {},
  "deployedLinkReferences": {}
}